S0180000524649445F61646A7573746D656E74732E73726563D6
S11300000C942A000C9447000C9447000C9447006D
S11300100C9447000C9447000C9447000C94470040
S11300200C9447000C9447000C9447000C94470030
S11300300C9447000C9447000C9447000C94470020
S11300400C9447000C9447000C9447000C94470010
S11300500C94470011241FBECFE5D8E0DEBFCDBF0E
S113006012E0A0E6B0E0EAE6F5E102C005900D92E8
S1130070A032B107D9F722E0A0E2B2E001C01D929C
S1130080AA32B207E1F70E948C030C94B30A0C94D1
S11300900000FC010FB6F8946091260270912702CB
S11300A080912802909129020FBE309721F060833D
S11300B071838283938308952F923F928FEA85BB45
S11300C083B38F7090E0F101918380838B3091052D
S11300D009F446C01CF4079739F00CC08D30910523
S11300E029F00E9729F006C083E23FC086E33DC0A5
S11300F083E33BC08FED85BB83B38F7090E0F10148
S1130100918380838B30910569F11CF4079739F052
S11301100CC08D30910529F00E9729F006C080E3BC
S113012024C085E322C082E320C08FEE85BB83B365
S11301308F7090E0F101918380838B309105A1F061
S11301401CF4079739F0BACF8D30910529F00E973A
S113015029F0B4CF8AE209C084E307C081E305C073
S113016089E303C088E301C087E33F902F9008959B
S11301702F923F92AF92BF92CF92DF92EF92FF9273
S11301800F931F93CF93DF9300D000D000D0CDB74F
S1130190DEB75C018EE00E9463020E9437020E9477
S11301A03B0280EF84BB84E690E00E94540261E04D
S11301B080E00E942D02E12CF12CCC24C394D12C9C
S11301C000E010E01DC061E0802F0E942D02CE01EE
S11301D001961C010E945C00E3E0F0E0EC0FFD1FBF
S11301E0E00FF11F80830E943F029FEF29E688E120
S11301F0915020408040E1F700C000000F5F1F4F86
S11302000430110504F380E090E013C0E3E0F0E073
S1130210EC0FFD1FE80FF91F3081F501E80FF91FFE
S11302202081321711F0C12CD12C2FEFE21AF20ADF
S113023001968430910554F381E0C816D104C1F4C9
S113024094E0E916F104A1F40E9437020E943B02F3
S113025083E790E00E9454022FEF87EA91E6215051
S113026080409040E1F700C0000081E090E01CC0B5
S1130270C114D10409F0A4CF24E0E216F10409F07A
S11302809FCF0E9437020E943B028DE790E00E94BC
S113029054028FEF97EA21E6815090402040E1F725
S11302A000C0000080E090E026960FB6F894DEBF10
S11302B00FBECDBFDF91CF911F910F91FF90EF90B3
S11302C0DF90CF90BF90AF903F902F9008958BB365
S11302D084608BBB00C08BB38B7F8BBB0895CF93A3
S11302E0C82F662321F08BB382608BBB03C08BB312
S11302F08D7F8BBB8BB3877F8BBB8AB380618ABBBB
S11303008AB380628ABB8AB380648ABB8AB38068FA
S11303108ABB8BB38F778BBB8BB38F7B8BBB8BB33E
S11303208F7D8BBB8BB38F7E8BBBCC231CF48BB3A9
S113033080688BBBC6FF03C08BB380648BBBC5FFD7
S113034003C08BB380628BBBC4FF03C08BB38061DB
S11303508BBB0E9467018BB38F778BBB8BB38F7B77
S11303608BBB8BB38F7D8BBB8BB38F7E8BBBC3FF60
S113037003C08BB380688BBBC2FF03C08BB38064A4
S11303808BBBC1FF03C08BB380628BBBC0FF03C0B8
S11303908BB380618BBB0E9467018BB380618BBB85
S11303A08BB380628BBB8BB380648BBB8BB3806855
S11303B08BBBCF910895882321F08BB382608BBBD4
S11303C003C08BB38D7F8BBB8BB388608BBB8AB32D
S11303D08F7E8ABB8AB38F7D8ABB8AB38F7B8ABBAD
S11303E08AB38F778ABB8BB384608BBB00C0CC99F4
S11303F002C080E001C080E1CD998062CE99806422
S1130400CF9980689BB39B7F9BBB00C09BB39460D8
S11304109BBB00C0CC998160CD998260CE998460E9
S1130420CF9988609BB39B7F9BBB089580E00E941B
S1130430DB018823DCF388E090E00197F1F780E0AA
S11304400E94DB010895CF93C82F0E94160260E03A
S11304508C2F0E946F01CF910895611104C08058C0
S11304600E942302089580540E942302089581E08B
S11304700E942302089582E00E9423020895CF93EC
S1130480C82F0E941602CA3049F4803410F480E464
S113049001C080E080580E94230204C061E08C2FD8
S11304A00E946F01CF910895CF93DF93FC0103C0A5
S11304B00E943F02FE01EF01219680818111F8CF55
S11304C0DF91CF9108951F93CF93DF93182F8AB3B1
S11304D082608ABB8AB388608ABB8AB384608ABB21
S11304E08AB380618ABB8AB380628ABB8AB3806420
S11304F08ABB8AB380688ABB80E09AEF0197F1F7E0
S11305008BB380628BBB8BB380618BBB0E94670112
S113051080E09EE40197F1F70E946701C0E0D1E01A
S1130520CE010197F1F70E946701CE010197F1F71F
S11305308BB38F7E8BBB0E9467012197F1F788E212
S11305400E94230288E00E9423020E94370286E070
S11305500E942302812F0E942302DF91CF911F91D9
S1130560089580E487B987E886B90895877097B1BC
S1130570987F892B87B986B1806486B93699FECF76
S113058084B195B10895CF92DF92EF92FF920F93C9
S11305901F93CF93DF93CDB7DEB72A970FB6F894A6
S11305A0DEBF0FBECDBF8FEF87BB81BB0E94B10200
S11305B08EE00E9463020E94370260E080E00E94A5
S11305C02D022FEF80E792E0215080409040E1F728
S11305D000C000000E94370260E080E00E942D020B
S11305E08DE890E00E94540261E080E00E942D02B8
S11305F088E990E00E9454022FEF83ED90E32150AC
S113060080409040E1F700C000000E94370280E083
S11306100E94B602BC0180E090E00E94E50827ED4C
S113062033EA40E050E40E943D080E94AF086B01A9
S11306307C018B0160E080E00E942D024AE050E0E2
S1130640BE016F5F7F4FC6010E94F70984EA90E004
S11306500E945402CE0101960E94540260E08EE092
S11306600E942D0281EB90E00E9454022FEF83ED53
S113067090E3215080409040E1F700C00000053233
S11306801105C4F00E943B0261E080E00E942D024B
S113069083EB90E00E9454022FEF8DE399E4215004
S11306A080409040E1F700C000000E94370280E0E3
S11306B090E023C023E2C21AD10882E0C816D10414
S11306C008F088CF0E943B0261E080E00E942D0286
S11306D081EC90E00E9454029FEF23ED80E391505F
S11306E020408040E1F700C000000E94370260E033
S11306F080E00E942D0281E090E02A960FB6F894E3
S1130700DEBF0FBECDBFDF91CF911F910F91FF9040
S1130710EF90DF90CF9008950E9494072FEF84E329
S11307209CE0215080409040E1F700C000000E940E
S113073037020E943B028CEC90E00E9454022FE3AB
S113074082E49FE0215080409040E1F700C0000027
S11307500E94C005813359F018F4803341F38AC0F4
S1130760823309F45CC0853309F459C083C00E9404
S113077037020E943B0280E292E00E9454022FE37F
S113078082E49FE0215080409040E1F700C00000E7
S113079080E292E00E94B8000197B9F50E94C3027A
S11307A0019799F580912402909125020E941F08D7
S11307B00E9437020E943B0289ED90E00E9454029D
S11307C02FE78AE196E0215080409040E1F700C095
S11307D000000E9437020E943B0283EE90E00E94D8
S11307E054020E9444040E948C0483EC99E0019713
S11307F0F1F700C000000E9437020E943B028DEE18
S113080090E00E9454020E9468049FE322E48FE077
S1130810915020408040E1F700C000002BC080913F
S11308202402909125020E941F080E9437020E9410
S11308303B0283EE90E00E9454020E9444040E9412
S11308408C0483EC99E00197F1F700C000000E944A
S113085037020E943B028DEE90E00E9454020E94F7
S113086068049FE32DE083E0915020408040E1F74D
S113087000C000009FE926E881E0915020408040BC
S1130880E1F700C0000053CF8FEF87BB82E088BB45
S11308902FEF83ED90E3215080409040E1F700C0BA
S11308A0000081E088BB2FEF89E698E12150804069
S11308B09040E1F700C0000083E088BB2FEF83ED98
S11308C090E3215080409040E1F700C0000008957B
S11308D08FEF87BB81E088BB2FEF83ED90E321503E
S11308E080409040E1F700C0000082E088BB2FEF19
S11308F089E698E1215080409040E1F700C0000073
S113090083E088BB2FEF83ED90E32150804090403B
S1130910E1F700C00000089584B38F7784BB80E0C2
S113092090E009C09F990BC0EFE9FFE03197F1F720
S113093000C0000001968938F3E19F079CF30895F5
S1130940DF92EF92FF920F931F93CF93DF937C017B
S11309508B018EEE92E00E94370AD82EC0E0D0E0E0
S11309600EC0F701EC0FFD1F60812FE0D29EC00185
S113097011244E968C0F9D1F0E943F0A2196CD3064
S1130980D1057CF3ED2CF12C2FE02E9DC0012F9D81
S1130990900D112462E08C960E943F0AC0E0D0E0E2
S11309A00DC00E94E7096AE070E00E947309682F95
S11309B0CE01855C9E4F0E943F0A2196C930D10525
S11309C084F362E08FE391E00E943F0AC0E0D0E04C
S11309D012C0F801EC0FFD1FC701880F991F880F83
S11309E0991F8E0D9F1D885A9D4F60818C0F9D1FEE
S11309F00E943F0A2196C430D1055CF361E06D0D7D
S1130A008EEE92E00E943F0A81E090E0DF91CF9168
S1130A101F910F91FF90EF90DF900895CF93DF9394
S1130A20CDB7DEB72D970FB6F894DEBF0FBECDBF9E
S1130A300E9437020E943B028AEF90E00E94540217
S1130A402FEF83ED90E3215080409040E1F700C008
S1130A50000061E080E00E942D0287E091E00E94A6
S1130A6054022FEF83ED90E3215080409040E1F752
S1130A7000C000000E9437020E943B0283E191E023
S1130A800E94540261E080E00E942D022FEF80E773
S1130A9092E0215080409040E1F700C000008FE1D7
S1130AA091E00E9454022FEF89E698E121508040A2
S1130AB09040E1F700C000000E9437020E943B0210
S1130AC08DE291E00E9454022FEF89E698E12150D3
S1130AD080409040E1F700C0000061E080E00E94A7
S1130AE02D028CE391E00E9454022FEF89E698E1F5
S1130AF0215080409040E1F700C000000E9437027E
S1130B000E943B028CEC90E00E9454022FEF89E695
S1130B1098E1215080409040E1F700C000008DE052
S1130B20E8E5F1E0DE01119601900D928A95E1F776
S1130B3068E471E0CE0101960E94A0040E9437028D
S1130B400E943B02CE0101960E9454022FEF89E6D7
S1130B5098E1215080409040E1F700C000000E94DD
S1130B6037020E943B028DE491E00E9454022D96CC
S1130B700FB6F894DEBF0FBECDBFDF91CF910895BD
S1130B809F92AF92BF92CF92DF92EF92FF920F9318
S1130B901F93CF93DF93CDB7DEB76A970FB6F89460
S1130BA0DEBF0FBECDBF8EEE92E00E94370AF82E54
S1130BB000E010E00EC0C801845D9E4F0E94370A19
S1130BC0E1E0F0E0EC0FFD1FE00FF11F80830F5F09
S1130BD01F4F0C3011057CF300E010E00EC0C8017B
S1130BE08C509E4F0E94370AEEE0F0E0EC0FFD1FA0
S1130BF0E00FF11F80830F5F1F4F0D3011057CF351
S1130C000E9437020E943B02CE0101960E945402C8
S1130C102FEF89E698E1215080409040E1F700C031
S1130C20000080E090E040E011C0E1E0F0E0EC0F73
S1130C30FD1FE80FF91F3081EEE0F0E0EC0FFD1F1F
S1130C40E80FF91F2081321341E001968C309105A1
S1130C5064F3413009F00EC10E9437020E943B0246
S1130C6085E691E00E9454022FEF89E698E1215035
S1130C7080409040E1F700C00000C12CD12CA12C91
S1130C80B12C0F2EF0E39F2EF02DECC02FE02C9D05
S1130C90C0012D9D900D11244E96800F911F0E942E
S1130CA0370AEEE0F0E0EC0FFD1FE00FF11F808348
S1130CB00F5F1F4F02C000E010E00D30110534F348
S1130CC00E9437020E943B02CE010E960E945402FB
S1130CD02FEF89E698E1215080409040E1F700C071
S1130CE0000080E090E075C0E1E0F0E0EC0FFD1F53
S1130CF0E80FF91F3081EEE0F0E0EC0FFD1FE80F84
S1130D00F91F208132136AC08B30910509F060C04D
S1130D10D0922502C09224022FE02C9DC0012D9D6B
S1130D20900D11248C960E94370AB82E00E010E032
S1130D3013C0C601880F991F880F991F8C0D9D1D24
S1130D40885A9D4F800F911F0E94370AF801E05E78
S1130D50FD4F80830F5F1F4F0430110554F30E9431
S1130D6037020E943B0280E791E00E94540261E056
S1130D7080E00E942D0289E791E00E9454022FEF47
S1130D8089E698E1215080409040E1F700C00000DE
S1130D908FE391E00E94370AE82EB81224C00E9423
S1130DA037020E943B0287E891E00E9454022FEF31
S1130DB089E698E1215080409040E1F700C00000AE
S1130DC0AA24A394B12C0F2EF1E39F2EF02D11C071
S1130DD001968C3091050CF487CF0BC00F2EF0E3F5
S1130DE09F2EF02D06C0A12CB12C0F2EF1E39F2EC7
S1130DF0F02D20E3921204C08FEFC81AD80A32C033
S1130E0091E399121CC0AA94AB28C9F40E9437023A
S1130E100E943B0285E991E00E945402E0FE04C076
S1130E200F2EF2E39F2EF02D8FEF99E628E18150EB
S1130E3090402040E1F700C00000892D1EC00E94B0
S1130E4037020E943B0283EA91E00E9454028FEF32
S1130E5099E628E1815090402040E1F700C000006D
S1130E6080E30BC08F2D90E0C816D9060CF423CF75
S1130E70892D03C00E940E0585E36A960FB6F89487
S1130E80DEBF0FBECDBFDF91CF911F910F91FF90B9
S1130E90EF90DF90CF90BF90AF909F9008950F9305
S1130EA01F93CF93DF938C01C0E0D0E00AC0F80118
S1130EB0EC0FFD1F6081CE018C509E4F0E943F0AB3
S1130EC02196CD30D1059CF381E090E0DF91CF9164
S1130ED01F910F9108950F931F93CF93DF9300D029
S1130EE000D0CDB7DEB7CE0101960E944900CB01F8
S1130EF00E94EC0900E010E00BC0F801EE54FE4F34
S1130F006081C801845D9E4F0E943F0A0F5F1F4F9E
S1130F100C30110594F30F900F900F900F90DF9108
S1130F20CF911F910F910895CF93DF93CDB7DEB783
S1130F30A7970FB6F894DEBF0FBECDBF60E08EEE6C
S1130F4092E00E943F0A8EE00E9463020E943702F0
S1130F500E943B028FEB91E00E94540261E080E02A
S1130F600E942D028AEC91E00E9454022FEF89E640
S1130F7098E1215080409040E1F700C000000E94B9
S1130F8037020E943B0282ED91E00E9454022FEF4F
S1130F9089E698E1215080409040E1F700C00000CC
S1130FA08DE0E6E0F2E0DE01119601900D928A9563
S1130FB0E1F7CE0101960E944F078DE0E3E1F2E0F4
S1130FC0DE011E9601900D928A95E1F768E471E0C6
S1130FD0CE010E960E94A0048DE0E2EBF1E0DE016A
S1130FE05B9601900D928A95E1F76AEE71E0CE016D
S1130FF04B960E94A0040E9437020E943B028FEE8F
S113100091E00E9454022FEF89E698E1215080403C
S11310109040E1F700C000000E9437020E943B02AA
S113102086EF91E00E9454020E946B07A7960FB6C8
S1131030F894DEBF0FBECDBFDF91CF9108951F930B
S1131040CF93DF932FE0AC01249FC001259F900D27
S11310501124EC01AC96CE010E94370A11E0180F5E
S1131060612F8FE391E00E943F0A612FCE010E941D
S11310703F0ADF91CF911F9108950E9451080C946B
S113108039090E94320958F00E942B0940F029F4D2
S11310905F3F29F00C94220951110C946D090C94B2
S11310A028090E944A0968F39923B1F3552391F35F
S11310B0951B550BBB27AA2762177307840738F0C3
S11310C09F5F5F4F220F331F441FAA1FA9F335D020
S11310D00E2E3AF0E0E832D091505040E695001CD4
S11310E0CAF72BD0FE2F29D0660F771F881FBB1F8E
S11310F0261737074807AB07B0E809F0BB0B802D6C
S1131100BF01FF2793585F4F3AF09E3F510578F097
S11311100C9422090C946D095F3FE4F3983ED4F3D8
S1131120869577956795B795F7959F5FC9F7880F6B
S1131130911D9695879597F90895E1E0660F771FBD
S1131140881FBB1F621773078407BA0720F0621B4E
S1131150730B840BBA0BEE1F88F7E09508950E9479
S1131160B6086894B1110C946D0908950E9452094F
S113117088F09F5798F0B92F9927B751B0F0E1F054
S1131180660F771F881F991F1AF0BA95C9F714C004
S1131190B13091F00E946C09B1E008950C946C098F
S11311A0672F782F8827B85F39F0B93FCCF386953D
S11311B077956795B395D9F73EF49095809570959A
S11311C061957F4F8F4F9F4F0895E89409C097FB17
S11311D03EF490958095709561957F4F8F4F9F4F0A
S11311E09923A9F0F92F96E9BB279395F69587954E
S11311F077956795B795F111F8CFFAF4BB0F11F411
S113120060FF1BC06F5F7F4F8F4F9F4F16C08823B7
S113121011F096E911C0772321F09EE8872F762FED
S113122005C0662371F096E8862F70E060E02AF02E
S11312309A95660F771F881FDAF7880F969587951A
S113124097F9089597F99F6780E870E060E0089542
S11312509FEF80EC089500240A94161617061806CA
S11312600906089500240A941216130614060506A6
S11312700895092E0394000C11F4882352F0BB0F37
S113128040F4BF2B11F460FF04C06F5F7F4F8F4F9A
S11312909F4F089557FD9058440F551F59F05F3FD5
S11312A071F04795880F97FB991F61F09F3F79F084
S11312B087950895121613061406551FF2CF469506
S11312C0F1DF08C0161617061806991FF1CF869588
S11312D07105610508940895E894BB27662777276C
S11312E0CB0197F9089597FB072E16F4009407D0C5
S11312F077FD09D00E94870907FC05D03EF490953C
S113130081959F4F0895709561957F4F0895AA1B0D
S1131310BB1B51E107C0AA1FBB1FA617B70710F0DC
S1131320A61BB70B881F991F5A95A9F7809590950E
S1131330BC01CD0108958F929F92AF92BF92CF923C
S1131340DF92EF92FF92CF93DF93EC016881798172
S11313508A819B81611571058105910521F464E2FF
S113136079ED8BE597E02DE133EF41E050E00E9409
S1131370500A49015A019B01AC01A7EAB1E40E9459
S11313806F0A6B017C01ACEEB4EFA50194010E94DD
S11313907D0ADC01CB018C0D9D1DAE1DBF1DB7FF69
S11313A003C00197A109B04888839983AA83BB83AA
S11313B09F77DF91CF91FF90EF90DF90CF90BF9018
S11313C0AF909F908F9008950E949B09089580E6A6
S11313D090E00E949B090895A0E0B0E08093600033
S11313E090936100A0936200B09363000895453226
S11313F0510520F4423010F00C94020AFB011082D3
S1131400CB010895BB274A3031F4992322F4BDE27D
S1131410909581959F4F0C940E0ABB27FB0155278D
S1131420AA27880F991FAA1FA41710F0A41B83953D
S11314305051B9F7A05DAA3308F0A95DA1930097B4
S113144079F7B111B1931192CB010C94270ADC0105
S1131450FC01672F71917723E1F7329704C07C91E7
S11314606D9370836291AE17BF07C8F30895E19935
S1131470FECF9FBB8EBBE09A99278DB30895262F8C
S1131480E199FECF9FBB8EBBE09A01970DB2021685
S113149031F02DBB0FB6F894E29AE19A0FBE08958D
S11314A0052E97FB1EF400940E94670A57FD07D08F
S11314B00E94820A07FC03D04EF40C94670A5095EC
S11314C04095309521953F4F4F4F5F4F089590952C
S11314D08095709561957F4F8F4F9F4F08950E941F
S11314E0A40AA59F900DB49F900DA49F800D911DFB
S11314F011240895B7FF0C946F0A0E946F0A821B8F
S1131500930B0895A1E21A2EAA1BBB1BFD010DC06B
S1131510AA1FBB1FEE1FFF1FA217B307E407F5079F
S113152020F0A21BB30BE40BF50B661F771F881F7B
S1131530991F1A9469F760957095809590959B0111
S1131540AC01BD01CF010895A29FB001B39FC001BA
S1131550A39F700D811D1124911DB29F700D811DDB
S10D15601124911D0895F894FFCFA3
S113156A01000000494E5055542050415353434FF3
S113157A4445004C4F4747454420494E00534F5277
S113158A52592054525920414741494E00436865F3
S113159A636B20596F75720054656D70657261745E
S11315AA7572650054656D70657261747572653D16
S11315BA00430054656D702E20697320486967687A
S11315CA0054656D70206973204F4B00456E746535
S11315DA7220524649443A200057656C636F6D6520
S11315EA2E2E0047617465204F70656E0047617442
S11315FA6520436C6F73696E6700234D617374656C
S113160A72204D656E750053656C656374696F6EFF
S113161A3A2000312E204E657720636172640032CD
S113162A2E20496E697469616C697A650053656C28
S113163A656374696F6E204E6F3A200031202D2045
S113164A456E7465726564003132333400537563D0
S113165A6365737366756C003038313234353233EE
S113166A3533323300436865636B696E672E2E0027
S113167A49442076616C696400636F756E7465729F
S113168A20636865636B00436F756E7465722076B8
S113169A616C6964004361726420416363657074B8
S11316AA6564005246494420696E76616C69642E09
S11316BA2E00303431323335323335333235004744
S11316CA726F75702030392E2E0050726F6A6563FE
S11316DA740057726974696E672073616D706C6502
S11316EA7320524649442E2E2E003536373800448C
S11316FA6F6E652E2E006372656174696E6720567B
S113170A2D5246494400313131313131313131318F
S113171A31310030393132333532333533323500F1
S9030000FC
